{
  "address": "0x5FbDB2315678afecb367f032d93F642f64180aa3",
  "abi": [
    {
      "anonymous": false,
      "inputs": [
        {
          "indexed": false,
          "internalType": "address",
          "name": "creator",
          "type": "address"
        },
        {
          "indexed": false,
          "internalType": "uint256",
          "name": "pickWinnerDate",
          "type": "uint256"
        },
        {
          "indexed": false,
          "internalType": "uint256",
          "name": "minDeposit",
          "type": "uint256"
        },
        {
          "indexed": false,
          "internalType": "bytes32",
          "name": "groupid",
          "type": "bytes32"
        },
        {
          "indexed": false,
          "internalType": "uint256",
          "name": "maxBetDateInterval",
          "type": "uint256"
        }
      ],
      "name": "BetCreated",
      "type": "event"
    },
    {
      "anonymous": false,
      "inputs": [
        {
          "indexed": false,
          "internalType": "address",
          "name": "creator",
          "type": "address"
        },
        {
          "indexed": false,
          "internalType": "uint256",
          "name": "eventDate",
          "type": "uint256"
        },
        {
          "indexed": false,
          "internalType": "uint256",
          "name": "minDeposit",
          "type": "uint256"
        },
        {
          "indexed": false,
          "internalType": "bytes32",
          "name": "groupid",
          "type": "bytes32"
        },
        {
          "indexed": false,
          "internalType": "uint256",
          "name": "maxBetDate",
          "type": "uint256"
        }
      ],
      "name": "EventCreated",
      "type": "event"
    },
    {
      "anonymous": false,
      "inputs": [
        {
          "indexed": false,
          "internalType": "string",
          "name": "name",
          "type": "string"
        },
        {
          "indexed": false,
          "internalType": "bytes32",
          "name": "id",
          "type": "bytes32"
        }
      ],
      "name": "GroupCreated",
      "type": "event"
    },
    {
      "anonymous": false,
      "inputs": [
        {
          "indexed": false,
          "internalType": "bytes32",
          "name": "groupId",
          "type": "bytes32"
        },
        {
          "indexed": false,
          "internalType": "address",
          "name": "memberAddress",
          "type": "address"
        },
        {
          "indexed": false,
          "internalType": "string",
          "name": "nickname",
          "type": "string"
        }
      ],
      "name": "MemberInvited",
      "type": "event"
    },
    {
      "inputs": [
        {
          "internalType": "uint256",
          "name": "eventDate",
          "type": "uint256"
        },
        {
          "internalType": "uint256",
          "name": "minDeposit",
          "type": "uint256"
        },
        {
          "internalType": "bytes32",
          "name": "groupid",
          "type": "bytes32"
        },
        {
          "internalType": "uint256",
          "name": "maxBetDate",
          "type": "uint256"
        }
      ],
      "name": "createEvent",
      "outputs": [],
      "stateMutability": "nonpayable",
      "type": "function"
    },
    {
      "inputs": [
        {
          "internalType": "string",
          "name": "groupName",
          "type": "string"
        },
        {
          "internalType": "string",
          "name": "nickname",
          "type": "string"
        }
      ],
      "name": "createGroup",
      "outputs": [],
      "stateMutability": "nonpayable",
      "type": "function"
    },
    {
      "inputs": [
        {
          "internalType": "address",
          "name": "memberAddress",
          "type": "address"
        },
        {
          "internalType": "string",
          "name": "memberNickname",
          "type": "string"
        },
        {
          "internalType": "bytes32",
          "name": "groupId",
          "type": "bytes32"
        }
      ],
      "name": "inviteMember",
      "outputs": [],
      "stateMutability": "nonpayable",
      "type": "function"
    },
    {
      "inputs": [
        {
          "internalType": "bytes32",
          "name": "groupId",
          "type": "bytes32"
        },
        {
          "internalType": "address",
          "name": "member",
          "type": "address"
        }
      ],
      "name": "isMember",
      "outputs": [
        {
          "internalType": "bool",
          "name": "",
          "type": "bool"
        }
      ],
      "stateMutability": "view",
      "type": "function"
    },
    {
      "inputs": [
        {
          "internalType": "bytes32",
          "name": "id",
          "type": "bytes32"
        }
      ],
      "name": "listGroupMembers",
      "outputs": [
        {
          "components": [
            {
              "internalType": "address",
              "name": "memberAddress",
              "type": "address"
            },
            {
              "internalType": "string",
              "name": "nickname",
              "type": "string"
            }
          ],
          "internalType": "struct Beer4Crypto.Member[]",
          "name": "",
          "type": "tuple[]"
        }
      ],
      "stateMutability": "view",
      "type": "function"
    },
    {
      "inputs": [
        {
          "internalType": "address",
          "name": "member",
          "type": "address"
        }
      ],
      "name": "listMemberGroups",
      "outputs": [
        {
          "components": [
            {
              "internalType": "bytes32",
              "name": "id",
              "type": "bytes32"
            },
            {
              "internalType": "string",
              "name": "name",
              "type": "string"
            }
          ],
          "internalType": "struct Beer4Crypto.Group[]",
          "name": "",
          "type": "tuple[]"
        }
      ],
      "stateMutability": "view",
      "type": "function"
    }
  ],
  "transactionHash": "0xac12508a88ff009ea48a92761b7a0826a36ce573dcf8d05c77ebe4f0e9bfb8fc",
  "args": [],
  "numDeployments": 1,
  "solcInputHash": "4e46509d124338c526a863826b560143",
  "bytecode": "0x608060405234801561001057600080fd5b50610d9c806100206000396000f3fe608060405234801561001057600080fd5b50600436106100625760003560e01c8063045c391c1461006757806310ad56b31461007c5780631b23c48d146100a45780631e4a97dd146100c45780634baa4128146100d75780638cf750ea146100ea575b600080fd5b61007a6100753660046107db565b61010a565b005b61008f61008a366004610829565b610260565b60405190151581526020015b60405180910390f35b6100b76100b2366004610855565b6103d2565b60405161009b91906108be565b61007a6100d23660046109de565b6104e2565b61007a6100e5366004610a42565b61060e565b6100fd6100f8366004610a99565b6106d5565b60405161009b9190610abb565b816101158133610260565b61013a5760405162461bcd60e51b815260040161013190610b21565b60405180910390fd5b6040805160e081018252338082526020808301898152838501898152600060608601818152608087018b815260a088018b815260c089018481528d855260018089528b862080548083018255908752989095208a5160079099020180546001600160a01b03999099166001600160a01b0319909916989098178855955193870193909355925160028601555160038501805491151560ff199092169190911790559051600484015551600583015551600690910155915190917fce1498e1122b1bfbc51fc964254cf0fc19e67eaeea804da24cf7b7b34c9966f791610250919089908990899089906001600160a01b03959095168552602085019390935260408401919091526060830152608082015260a00190565b60405180910390a1505050505050565b60008281526020818152604080832080548251818502810185019093528083528493849084015b82821015610360576000848152602090819020604080518082019091526002850290910180546001600160a01b0316825260018101805492939192918401916102cf90610b64565b80601f01602080910402602001604051908101604052809291908181526020018280546102fb90610b64565b80156103485780601f1061031d57610100808354040283529160200191610348565b820191906000526020600020905b81548152906001019060200180831161032b57829003601f168201915b50505050508152505081526020019060010190610287565b50505050905060005b81518110156103c557836001600160a01b031682828151811061038e5761038e610b9e565b6020026020010151600001516001600160a01b0316036103b3576001925050506103cc565b806103bd81610bb4565b915050610369565b5060009150505b92915050565b600081815260208181526040808320805482518185028101850190935280835260609492939192909184015b828210156104d7576000848152602090819020604080518082019091526002850290910180546001600160a01b03168252600181018054929391929184019161044690610b64565b80601f016020809104026020016040519081016040528092919081815260200182805461047290610b64565b80156104bf5780601f10610494576101008083540402835291602001916104bf565b820191906000526020600020905b8154815290600101906020018083116104a257829003601f168201915b505050505081525050815260200190600101906103fe565b505050509050919050565b6000824243406040516020016104fa93929190610bdb565b60408051601f198184030181528282528051602091820120838301835280845283820187815283518085018552338082528185018990526000908152600280865295812080546001818101835591835295909120875195909602909501938455905191955092849291908201906105719082610c51565b505050600083815260208181526040822080546001808201835591845292829020845160029094020180546001600160a01b0319166001600160a01b03909416939093178355908301518392918201906105cb9082610c51565b5050507f50032f83d3694b97a61f9796312b558744e9fb13361854acd23911fdce1f9a9185846040516105ff929190610d11565b60405180910390a15050505050565b806106198133610260565b6106355760405162461bcd60e51b815260040161013190610b21565b6040805180820182526001600160a01b0386811682526020808301878152600087815280835294852080546001808201835591875292909520845160029093020180546001600160a01b0319169290931691909117825551919283929082019061069f9082610c51565b5050507f0d6a355f98d852081e35cdbc77eee1e345add65882b1f7d56eb12702e9621f508386866040516105ff93929190610d33565b6001600160a01b0381166000908152600260209081526040808320805482518185028101850190935280835260609492939192909184015b828210156104d757838290600052602060002090600202016040518060400160405290816000820154815260200160018201805461074a90610b64565b80601f016020809104026020016040519081016040528092919081815260200182805461077690610b64565b80156107c35780601f10610798576101008083540402835291602001916107c3565b820191906000526020600020905b8154815290600101906020018083116107a657829003601f168201915b5050505050815250508152602001906001019061070d565b600080600080608085870312156107f157600080fd5b5050823594602084013594506040840135936060013592509050565b80356001600160a01b038116811461082457600080fd5b919050565b6000806040838503121561083c57600080fd5b8235915061084c6020840161080d565b90509250929050565b60006020828403121561086757600080fd5b5035919050565b60005b83811015610889578181015183820152602001610871565b50506000910152565b600081518084526108aa81602086016020860161086e565b601f01601f19169290920160200192915050565b60006020808301818452808551808352604092508286019150828160051b87010184880160005b8381101561092d57888303603f19018552815180516001600160a01b0316845287015187840187905261091a87850182610892565b95880195935050908601906001016108e5565b509098975050505050505050565b634e487b7160e01b600052604160045260246000fd5b600082601f83011261096257600080fd5b813567ffffffffffffffff8082111561097d5761097d61093b565b604051601f8301601f19908116603f011681019082821181831017156109a5576109a561093b565b816040528381528660208588010111156109be57600080fd5b836020870160208301376000602085830101528094505050505092915050565b600080604083850312156109f157600080fd5b823567ffffffffffffffff80821115610a0957600080fd5b610a1586838701610951565b93506020850135915080821115610a2b57600080fd5b50610a3885828601610951565b9150509250929050565b600080600060608486031215610a5757600080fd5b610a608461080d565b9250602084013567ffffffffffffffff811115610a7c57600080fd5b610a8886828701610951565b925050604084013590509250925092565b600060208284031215610aab57600080fd5b610ab48261080d565b9392505050565b60006020808301818452808551808352604092508286019150828160051b87010184880160005b8381101561092d57888303603f19018552815180518452870151878401879052610b0e87850182610892565b9588019593505090860190600101610ae2565b60208082526023908201527f4f6e6c79206d656d626572732063616e2063616c6c20746869732066756e637460408201526234b7b760e91b606082015260800190565b600181811c90821680610b7857607f821691505b602082108103610b9857634e487b7160e01b600052602260045260246000fd5b50919050565b634e487b7160e01b600052603260045260246000fd5b600060018201610bd457634e487b7160e01b600052601160045260246000fd5b5060010190565b60008451610bed81846020890161086e565b91909101928352506020820152604001919050565b601f821115610c4c57600081815260208120601f850160051c81016020861015610c295750805b601f850160051c820191505b81811015610c4857828155600101610c35565b5050505b505050565b815167ffffffffffffffff811115610c6b57610c6b61093b565b610c7f81610c798454610b64565b84610c02565b602080601f831160018114610cb45760008415610c9c5750858301515b600019600386901b1c1916600185901b178555610c48565b600085815260208120601f198616915b82811015610ce357888601518255948401946001909101908401610cc4565b5085821015610d015787850151600019600388901b60f8161c191681555b5050505050600190811b01905550565b604081526000610d246040830185610892565b90508260208301529392505050565b8381526001600160a01b0383166020820152606060408201819052600090610d5d90830184610892565b9594505050505056fea264697066735822122044ea26036089da2859eff7bef376462547bc288f8cc1e78d1b65c438affd6c8a64736f6c63430008130033",
  "devdoc": {
    "kind": "dev",
    "methods": {},
    "version": 1
  },
  "userdoc": {
    "kind": "user",
    "methods": {},
    "version": 1
  },
  "storageLayout": {
    "storage": [
      {
        "astId": 40,
        "contract": "contracts/Beer4Crypto.sol:Beer4Crypto",
        "label": "groupMembers",
        "offset": 0,
        "slot": "0",
        "type": "t_mapping(t_bytes32,t_array(t_struct(Member)34_storage)dyn_storage)"
      },
      {
        "astId": 46,
        "contract": "contracts/Beer4Crypto.sol:Beer4Crypto",
        "label": "groupEvents",
        "offset": 0,
        "slot": "1",
        "type": "t_mapping(t_bytes32,t_array(t_struct(Event)17_storage)dyn_storage)"
      },
      {
        "astId": 52,
        "contract": "contracts/Beer4Crypto.sol:Beer4Crypto",
        "label": "memberGroups",
        "offset": 0,
        "slot": "2",
        "type": "t_mapping(t_address,t_array(t_struct(Group)29_storage)dyn_storage)"
      },
      {
        "astId": 58,
        "contract": "contracts/Beer4Crypto.sol:Beer4Crypto",
        "label": "eventMemberBets",
        "offset": 0,
        "slot": "3",
        "type": "t_mapping(t_uint256,t_array(t_struct(MemberBet)24_storage)dyn_storage)"
      }
    ],
    "types": {
      "t_address": {
        "encoding": "inplace",
        "label": "address",
        "numberOfBytes": "20"
      },
      "t_array(t_struct(Event)17_storage)dyn_storage": {
        "base": "t_struct(Event)17_storage",
        "encoding": "dynamic_array",
        "label": "struct Beer4Crypto.Event[]",
        "numberOfBytes": "32"
      },
      "t_array(t_struct(Group)29_storage)dyn_storage": {
        "base": "t_struct(Group)29_storage",
        "encoding": "dynamic_array",
        "label": "struct Beer4Crypto.Group[]",
        "numberOfBytes": "32"
      },
      "t_array(t_struct(Member)34_storage)dyn_storage": {
        "base": "t_struct(Member)34_storage",
        "encoding": "dynamic_array",
        "label": "struct Beer4Crypto.Member[]",
        "numberOfBytes": "32"
      },
      "t_array(t_struct(MemberBet)24_storage)dyn_storage": {
        "base": "t_struct(MemberBet)24_storage",
        "encoding": "dynamic_array",
        "label": "struct Beer4Crypto.MemberBet[]",
        "numberOfBytes": "32"
      },
      "t_bool": {
        "encoding": "inplace",
        "label": "bool",
        "numberOfBytes": "1"
      },
      "t_bytes32": {
        "encoding": "inplace",
        "label": "bytes32",
        "numberOfBytes": "32"
      },
      "t_mapping(t_address,t_array(t_struct(Group)29_storage)dyn_storage)": {
        "encoding": "mapping",
        "key": "t_address",
        "label": "mapping(address => struct Beer4Crypto.Group[])",
        "numberOfBytes": "32",
        "value": "t_array(t_struct(Group)29_storage)dyn_storage"
      },
      "t_mapping(t_bytes32,t_array(t_struct(Event)17_storage)dyn_storage)": {
        "encoding": "mapping",
        "key": "t_bytes32",
        "label": "mapping(bytes32 => struct Beer4Crypto.Event[])",
        "numberOfBytes": "32",
        "value": "t_array(t_struct(Event)17_storage)dyn_storage"
      },
      "t_mapping(t_bytes32,t_array(t_struct(Member)34_storage)dyn_storage)": {
        "encoding": "mapping",
        "key": "t_bytes32",
        "label": "mapping(bytes32 => struct Beer4Crypto.Member[])",
        "numberOfBytes": "32",
        "value": "t_array(t_struct(Member)34_storage)dyn_storage"
      },
      "t_mapping(t_uint256,t_array(t_struct(MemberBet)24_storage)dyn_storage)": {
        "encoding": "mapping",
        "key": "t_uint256",
        "label": "mapping(uint256 => struct Beer4Crypto.MemberBet[])",
        "numberOfBytes": "32",
        "value": "t_array(t_struct(MemberBet)24_storage)dyn_storage"
      },
      "t_string_storage": {
        "encoding": "bytes",
        "label": "string",
        "numberOfBytes": "32"
      },
      "t_struct(Event)17_storage": {
        "encoding": "inplace",
        "label": "struct Beer4Crypto.Event",
        "members": [
          {
            "astId": 4,
            "contract": "contracts/Beer4Crypto.sol:Beer4Crypto",
            "label": "creator",
            "offset": 0,
            "slot": "0",
            "type": "t_address"
          },
          {
            "astId": 6,
            "contract": "contracts/Beer4Crypto.sol:Beer4Crypto",
            "label": "eventDate",
            "offset": 0,
            "slot": "1",
            "type": "t_uint256"
          },
          {
            "astId": 8,
            "contract": "contracts/Beer4Crypto.sol:Beer4Crypto",
            "label": "minDeposit",
            "offset": 0,
            "slot": "2",
            "type": "t_uint256"
          },
          {
            "astId": 10,
            "contract": "contracts/Beer4Crypto.sol:Beer4Crypto",
            "label": "ended",
            "offset": 0,
            "slot": "3",
            "type": "t_bool"
          },
          {
            "astId": 12,
            "contract": "contracts/Beer4Crypto.sol:Beer4Crypto",
            "label": "groupid",
            "offset": 0,
            "slot": "4",
            "type": "t_bytes32"
          },
          {
            "astId": 14,
            "contract": "contracts/Beer4Crypto.sol:Beer4Crypto",
            "label": "maxBetDate",
            "offset": 0,
            "slot": "5",
            "type": "t_uint256"
          },
          {
            "astId": 16,
            "contract": "contracts/Beer4Crypto.sol:Beer4Crypto",
            "label": "actualEthPrice",
            "offset": 0,
            "slot": "6",
            "type": "t_uint256"
          }
        ],
        "numberOfBytes": "224"
      },
      "t_struct(Group)29_storage": {
        "encoding": "inplace",
        "label": "struct Beer4Crypto.Group",
        "members": [
          {
            "astId": 26,
            "contract": "contracts/Beer4Crypto.sol:Beer4Crypto",
            "label": "id",
            "offset": 0,
            "slot": "0",
            "type": "t_bytes32"
          },
          {
            "astId": 28,
            "contract": "contracts/Beer4Crypto.sol:Beer4Crypto",
            "label": "name",
            "offset": 0,
            "slot": "1",
            "type": "t_string_storage"
          }
        ],
        "numberOfBytes": "64"
      },
      "t_struct(Member)34_storage": {
        "encoding": "inplace",
        "label": "struct Beer4Crypto.Member",
        "members": [
          {
            "astId": 31,
            "contract": "contracts/Beer4Crypto.sol:Beer4Crypto",
            "label": "memberAddress",
            "offset": 0,
            "slot": "0",
            "type": "t_address"
          },
          {
            "astId": 33,
            "contract": "contracts/Beer4Crypto.sol:Beer4Crypto",
            "label": "nickname",
            "offset": 0,
            "slot": "1",
            "type": "t_string_storage"
          }
        ],
        "numberOfBytes": "64"
      },
      "t_struct(MemberBet)24_storage": {
        "encoding": "inplace",
        "label": "struct Beer4Crypto.MemberBet",
        "members": [
          {
            "astId": 19,
            "contract": "contracts/Beer4Crypto.sol:Beer4Crypto",
            "label": "member",
            "offset": 0,
            "slot": "0",
            "type": "t_address"
          },
          {
            "astId": 21,
            "contract": "contracts/Beer4Crypto.sol:Beer4Crypto",
            "label": "betDate",
            "offset": 0,
            "slot": "1",
            "type": "t_uint256"
          },
          {
            "astId": 23,
            "contract": "contracts/Beer4Crypto.sol:Beer4Crypto",
            "label": "predictedEthPrice",
            "offset": 0,
            "slot": "2",
            "type": "t_uint256"
          }
        ],
        "numberOfBytes": "96"
      },
      "t_uint256": {
        "encoding": "inplace",
        "label": "uint256",
        "numberOfBytes": "32"
      }
    }
  }
}