{
  "address": "0xe50AF14C34F2963Ee762bC9474357dC636bCa844",
  "abi": [
    {
      "anonymous": false,
      "inputs": [
        {
          "indexed": false,
          "internalType": "address",
          "name": "creator",
          "type": "address"
        },
        {
          "indexed": false,
          "internalType": "bytes32",
          "name": "groupId",
          "type": "bytes32"
        },
        {
          "indexed": false,
          "internalType": "uint256",
          "name": "amountDeposited",
          "type": "uint256"
        },
        {
          "indexed": false,
          "internalType": "uint256",
          "name": "predictedEthPrice",
          "type": "uint256"
        },
        {
          "indexed": false,
          "internalType": "bytes32",
          "name": "eventId",
          "type": "bytes32"
        }
      ],
      "name": "BetCreated",
      "type": "event"
    },
    {
      "anonymous": false,
      "inputs": [
        {
          "indexed": false,
          "internalType": "bytes32",
          "name": "eventId",
          "type": "bytes32"
        },
        {
          "indexed": false,
          "internalType": "address",
          "name": "creator",
          "type": "address"
        },
        {
          "indexed": false,
          "internalType": "uint256",
          "name": "eventDate",
          "type": "uint256"
        },
        {
          "indexed": false,
          "internalType": "uint256",
          "name": "minDeposit",
          "type": "uint256"
        },
        {
          "indexed": false,
          "internalType": "bytes32",
          "name": "groupId",
          "type": "bytes32"
        },
        {
          "indexed": false,
          "internalType": "uint256",
          "name": "maxBetDate",
          "type": "uint256"
        }
      ],
      "name": "EventCreated",
      "type": "event"
    },
    {
      "anonymous": false,
      "inputs": [
        {
          "indexed": false,
          "internalType": "string",
          "name": "name",
          "type": "string"
        },
        {
          "indexed": false,
          "internalType": "bytes32",
          "name": "id",
          "type": "bytes32"
        }
      ],
      "name": "GroupCreated",
      "type": "event"
    },
    {
      "anonymous": false,
      "inputs": [
        {
          "indexed": false,
          "internalType": "bytes32",
          "name": "groupId",
          "type": "bytes32"
        },
        {
          "indexed": false,
          "internalType": "address",
          "name": "memberAddress",
          "type": "address"
        },
        {
          "indexed": false,
          "internalType": "string",
          "name": "nickname",
          "type": "string"
        }
      ],
      "name": "MemberInvited",
      "type": "event"
    },
    {
      "inputs": [
        {
          "internalType": "bytes32",
          "name": "eventId",
          "type": "bytes32"
        },
        {
          "internalType": "uint256",
          "name": "predictedEthPrice",
          "type": "uint256"
        }
      ],
      "name": "createBet",
      "outputs": [],
      "stateMutability": "payable",
      "type": "function"
    },
    {
      "inputs": [
        {
          "internalType": "uint256",
          "name": "eventDate",
          "type": "uint256"
        },
        {
          "internalType": "uint256",
          "name": "minDeposit",
          "type": "uint256"
        },
        {
          "internalType": "bytes32",
          "name": "groupId",
          "type": "bytes32"
        },
        {
          "internalType": "uint256",
          "name": "maxBetDate",
          "type": "uint256"
        }
      ],
      "name": "createEvent",
      "outputs": [],
      "stateMutability": "nonpayable",
      "type": "function"
    },
    {
      "inputs": [
        {
          "internalType": "string",
          "name": "groupName",
          "type": "string"
        },
        {
          "internalType": "string",
          "name": "nickname",
          "type": "string"
        }
      ],
      "name": "createGroup",
      "outputs": [],
      "stateMutability": "nonpayable",
      "type": "function"
    },
    {
      "inputs": [
        {
          "internalType": "bytes32",
          "name": "eventId",
          "type": "bytes32"
        },
        {
          "internalType": "address",
          "name": "memberAddress",
          "type": "address"
        }
      ],
      "name": "getBet",
      "outputs": [
        {
          "components": [
            {
              "internalType": "address",
              "name": "creator",
              "type": "address"
            },
            {
              "internalType": "uint256",
              "name": "betDate",
              "type": "uint256"
            },
            {
              "internalType": "uint256",
              "name": "predictedEthPrice",
              "type": "uint256"
            },
            {
              "internalType": "uint256",
              "name": "amountDeposited",
              "type": "uint256"
            },
            {
              "internalType": "enum Beer4Crypto.BetStatus",
              "name": "status",
              "type": "uint8"
            },
            {
              "internalType": "bytes32",
              "name": "eventId",
              "type": "bytes32"
            }
          ],
          "internalType": "struct Beer4Crypto.Bet",
          "name": "",
          "type": "tuple"
        }
      ],
      "stateMutability": "view",
      "type": "function"
    },
    {
      "inputs": [
        {
          "internalType": "bytes32",
          "name": "groupId",
          "type": "bytes32"
        },
        {
          "internalType": "uint256",
          "name": "eventDate",
          "type": "uint256"
        }
      ],
      "name": "getGroupEvent",
      "outputs": [
        {
          "components": [
            {
              "internalType": "bytes32",
              "name": "id",
              "type": "bytes32"
            },
            {
              "internalType": "address",
              "name": "creator",
              "type": "address"
            },
            {
              "internalType": "uint256",
              "name": "eventDate",
              "type": "uint256"
            },
            {
              "internalType": "uint256",
              "name": "minDeposit",
              "type": "uint256"
            },
            {
              "internalType": "bool",
              "name": "ended",
              "type": "bool"
            },
            {
              "internalType": "bytes32",
              "name": "groupId",
              "type": "bytes32"
            },
            {
              "internalType": "uint256",
              "name": "maxBetDate",
              "type": "uint256"
            },
            {
              "internalType": "uint256",
              "name": "actualEthPrice",
              "type": "uint256"
            }
          ],
          "internalType": "struct Beer4Crypto.GroupEvent",
          "name": "",
          "type": "tuple"
        }
      ],
      "stateMutability": "view",
      "type": "function"
    },
    {
      "inputs": [
        {
          "internalType": "address",
          "name": "memberAddress",
          "type": "address"
        },
        {
          "internalType": "string",
          "name": "memberNickname",
          "type": "string"
        },
        {
          "internalType": "bytes32",
          "name": "groupId",
          "type": "bytes32"
        }
      ],
      "name": "inviteMember",
      "outputs": [],
      "stateMutability": "nonpayable",
      "type": "function"
    },
    {
      "inputs": [
        {
          "internalType": "bytes32",
          "name": "groupId",
          "type": "bytes32"
        },
        {
          "internalType": "address",
          "name": "member",
          "type": "address"
        }
      ],
      "name": "isMember",
      "outputs": [
        {
          "internalType": "bool",
          "name": "",
          "type": "bool"
        }
      ],
      "stateMutability": "view",
      "type": "function"
    }
  ],
  "transactionHash": "0x7a28177ccfa80704f9d951ac1c98ac1c9752328616f51fefe0198bee95b6842a",
  "args": [],
  "numDeployments": 3,
  "solcInputHash": "f32f25f0d77fc8cbc9993ed756fb0c05",
  "bytecode": "0x608060405234801561001057600080fd5b50611054806100206000396000f3fe6080604052600436106100705760003560e01c80631e4a97dd1161004e5780631e4a97dd146100fd5780634baa41281461011d578063c08cd1211461013d578063ef77620b1461028b57600080fd5b8063045c391c14610075578063084c3c571461009757806310ad56b3146100cd575b600080fd5b34801561008157600080fd5b50610095610090366004610b58565b61029e565b005b3480156100a357600080fd5b506100b76100b2366004610ba6565b610537565b6040516100c49190610be8565b60405180910390f35b3480156100d957600080fd5b506100ed6100e8366004610ba6565b6105db565b60405190151581526020016100c4565b34801561010957600080fd5b50610095610118366004610cf5565b610606565b34801561012957600080fd5b50610095610138366004610d59565b610749565b34801561014957600080fd5b50610224610158366004610db0565b6040805161010081018252600080825260208201819052918101829052606081018290526080810182905260a0810182905260c0810182905260e0810191909152506000828152600360208181526040808420858552825280842054845260018083529381902081516101008101835281548152948101546001600160a01b031692850192909252600282015490840152908101546060830152600481015460ff1615156080830152600581015460a0830152600681015460c08301526007015460e082015292915050565b6040516100c49190815181526020808301516001600160a01b031690820152604080830151908201526060808301519082015260808083015115159082015260a0808301519082015260c0808301519082015260e091820151918101919091526101000190565b610095610299366004610db0565b610807565b816102a981336105db565b6102ce5760405162461bcd60e51b81526004016102c590610dd2565b60405180910390fd5b42851161031d5760405162461bcd60e51b815260206004820181905260248201527f4576656e742064617465206d75737420626520696e207468652066757475726560448201526064016102c5565b81851161036c5760405162461bcd60e51b815260206004820152601d60248201527f4576656e742064617465206166746572206d617820626574206461746500000060448201526064016102c5565b6000838152600360209081526040808320888452909152902054156103ca5760405162461bcd60e51b81526020600482015260146024820152734576656e7420616c72656164792065786973747360601b60448201526064016102c5565b604080516020810185905290810186905260009060600160408051601f19818403018152828252805160209182012061010084018352808452338483018181528585018c8152606087018c815260006080890181815260a08a018e815260c08b018e815260e08c018481528985526001808c528c86208e518155985190890180546001600160a01b03929092166001600160a01b0319909216919091179055955160028801559351600380880191909155915160048701805491151560ff199092169190911790555160058601559151600685015591516007909301929092558a81529084528481208c82529093529183902081905591519193507f21a13d4bd90884bc1fe11a9f0397871a0f8485f463a9f20227ba917fdba536d3916105269185918b908b908b908b909586526001600160a01b0394909416602086015260408501929092526060840152608083015260a082015260c00190565b60405180910390a150505050505050565b61053f610b08565b60008381526004602081815260408084206001600160a01b03808816865290835293819020815160c081018352815490951685526001810154928501929092526002808301549185019190915260038201546060850152918101549091608084019160ff16908111156105b4576105b4610bd2565b60028111156105c5576105c5610bd2565b8152602001600582015481525050905092915050565b60009182526002602090815260408084206001600160a01b0393841685529091529091205416151590565b60008242434060405160200161061e93929190610e2d565b60408051601f19818403018152828252805160209182012083830183528084528382018781528351808501855233815280840188905260008381529384905293909220845181559151909450839190600182019061067c9082610edd565b50505060008381526002602090815260408083203384528252909120825181546001600160a01b0319166001600160a01b039091161781559082015182919060018201906106ca9082610edd565b509050507f50032f83d3694b97a61f9796312b558744e9fb13361854acd23911fdce1f9a9185846040516106ff929190610fc9565b60405180910390a17f0d6a355f98d852081e35cdbc77eee1e345add65882b1f7d56eb12702e9621f5083338660405161073a93929190610feb565b60405180910390a15050505050565b8061075481336105db565b6107705760405162461bcd60e51b81526004016102c590610dd2565b6040805180820182526001600160a01b03868116808352602080840188815260008881526002835286812093815292909152939020825181546001600160a01b031916921691909117815591519091829160018201906107d09082610edd565b509050507f0d6a355f98d852081e35cdbc77eee1e345add65882b1f7d56eb12702e9621f5083868660405161073a93929190610feb565b60008281526001602081815260408084208151610100810183528154808252948201546001600160a01b03169381019390935260028101549183019190915260038101546060830152600481015460ff1615156080830152600581015460a0830152600681015460c08301526007015460e082015291036108c15760405162461bcd60e51b8152602060048201526014602482015273115d995b9d08191bd95cc81b9bdd08195e1a5cdd60621b60448201526064016102c5565b6108cf8160a00151336105db565b6108eb5760405162461bcd60e51b81526004016102c590610dd2565b428160c00151116109305760405162461bcd60e51b815260206004820152600f60248201526e10995d1cc8185c994818db1bdcd959608a1b60448201526064016102c5565b80606001513410156109845760405162461bcd60e51b815260206004820152601960248201527f4d696e2042657420616d6f756e74206973206e6f74206d65740000000000000060448201526064016102c5565b805160009081526004602090815260408083203384529091529020546001600160a01b0316156109eb5760405162461bcd60e51b815260206004820152601260248201527142657420616c72656164792065786973747360701b60448201526064016102c5565b6040805160c0810182523381524260208201529081018390523460608201526000906080810182815283516020918201528351600090815260048083526040808320338452845291829020845181546001600160a01b0319166001600160a01b039091161781559284015160018085019190915591840151600280850191909155606085015160038501556080850151918401805495965086959293909260ff1916918490811115610a9f57610a9f610bd2565b021790555060a0918201516005919091015582810151835160408051338152602081019390935234908301526060820186905260808201527fe526664bb0811d464f858b64174b1a3639f6e05b27f8c2b2ac483366f62468b2910160405180910390a150505050565b6040518060c0016040528060006001600160a01b0316815260200160008152602001600081526020016000815260200160006002811115610b4b57610b4b610bd2565b8152600060209091015290565b60008060008060808587031215610b6e57600080fd5b5050823594602084013594506040840135936060013592509050565b80356001600160a01b0381168114610ba157600080fd5b919050565b60008060408385031215610bb957600080fd5b82359150610bc960208401610b8a565b90509250929050565b634e487b7160e01b600052602160045260246000fd5b81516001600160a01b03168152602080830151908201526040808301519082015260608083015190820152608082015160c082019060038110610c3b57634e487b7160e01b600052602160045260246000fd5b8060808401525060a083015160a083015292915050565b634e487b7160e01b600052604160045260246000fd5b600082601f830112610c7957600080fd5b813567ffffffffffffffff80821115610c9457610c94610c52565b604051601f8301601f19908116603f01168101908282118183101715610cbc57610cbc610c52565b81604052838152866020858801011115610cd557600080fd5b836020870160208301376000602085830101528094505050505092915050565b60008060408385031215610d0857600080fd5b823567ffffffffffffffff80821115610d2057600080fd5b610d2c86838701610c68565b93506020850135915080821115610d4257600080fd5b50610d4f85828601610c68565b9150509250929050565b600080600060608486031215610d6e57600080fd5b610d7784610b8a565b9250602084013567ffffffffffffffff811115610d9357600080fd5b610d9f86828701610c68565b925050604084013590509250925092565b60008060408385031215610dc357600080fd5b50508035926020909101359150565b60208082526019908201527f43616c6c6572206e6f7420612067726f7570206d656d62657200000000000000604082015260600190565b60005b83811015610e24578181015183820152602001610e0c565b50506000910152565b60008451610e3f818460208901610e09565b91909101928352506020820152604001919050565b600181811c90821680610e6857607f821691505b602082108103610e8857634e487b7160e01b600052602260045260246000fd5b50919050565b601f821115610ed857600081815260208120601f850160051c81016020861015610eb55750805b601f850160051c820191505b81811015610ed457828155600101610ec1565b5050505b505050565b815167ffffffffffffffff811115610ef757610ef7610c52565b610f0b81610f058454610e54565b84610e8e565b602080601f831160018114610f405760008415610f285750858301515b600019600386901b1c1916600185901b178555610ed4565b600085815260208120601f198616915b82811015610f6f57888601518255948401946001909101908401610f50565b5085821015610f8d5787850151600019600388901b60f8161c191681555b5050505050600190811b01905550565b60008151808452610fb5816020860160208601610e09565b601f01601f19169290920160200192915050565b604081526000610fdc6040830185610f9d565b90508260208301529392505050565b8381526001600160a01b038316602082015260606040820181905260009061101590830184610f9d565b9594505050505056fea264697066735822122010d6c1a014715b1f9c9d1f5544caaf5c898bc2dc7edce0866e49aa0e401bb23b64736f6c63430008130033",
  "devdoc": {
    "kind": "dev",
    "methods": {},
    "version": 1
  },
  "userdoc": {
    "kind": "user",
    "methods": {},
    "version": 1
  },
  "storageLayout": {
    "storage": [
      {
        "astId": 52,
        "contract": "contracts/Beer4Crypto.sol:Beer4Crypto",
        "label": "groups",
        "offset": 0,
        "slot": "0",
        "type": "t_mapping(t_bytes32,t_struct(Group)42_storage)"
      },
      {
        "astId": 57,
        "contract": "contracts/Beer4Crypto.sol:Beer4Crypto",
        "label": "groupEvents",
        "offset": 0,
        "slot": "1",
        "type": "t_mapping(t_bytes32,t_struct(GroupEvent)23_storage)"
      },
      {
        "astId": 64,
        "contract": "contracts/Beer4Crypto.sol:Beer4Crypto",
        "label": "groupToMembers",
        "offset": 0,
        "slot": "2",
        "type": "t_mapping(t_bytes32,t_mapping(t_address,t_struct(Member)47_storage))"
      },
      {
        "astId": 70,
        "contract": "contracts/Beer4Crypto.sol:Beer4Crypto",
        "label": "eventToGroups",
        "offset": 0,
        "slot": "3",
        "type": "t_mapping(t_bytes32,t_mapping(t_uint256,t_bytes32))"
      },
      {
        "astId": 77,
        "contract": "contracts/Beer4Crypto.sol:Beer4Crypto",
        "label": "betToEvents",
        "offset": 0,
        "slot": "4",
        "type": "t_mapping(t_bytes32,t_mapping(t_address,t_struct(Bet)37_storage))"
      }
    ],
    "types": {
      "t_address": {
        "encoding": "inplace",
        "label": "address",
        "numberOfBytes": "20"
      },
      "t_bool": {
        "encoding": "inplace",
        "label": "bool",
        "numberOfBytes": "1"
      },
      "t_bytes32": {
        "encoding": "inplace",
        "label": "bytes32",
        "numberOfBytes": "32"
      },
      "t_enum(BetStatus)6": {
        "encoding": "inplace",
        "label": "enum Beer4Crypto.BetStatus",
        "numberOfBytes": "1"
      },
      "t_mapping(t_address,t_struct(Bet)37_storage)": {
        "encoding": "mapping",
        "key": "t_address",
        "label": "mapping(address => struct Beer4Crypto.Bet)",
        "numberOfBytes": "32",
        "value": "t_struct(Bet)37_storage"
      },
      "t_mapping(t_address,t_struct(Member)47_storage)": {
        "encoding": "mapping",
        "key": "t_address",
        "label": "mapping(address => struct Beer4Crypto.Member)",
        "numberOfBytes": "32",
        "value": "t_struct(Member)47_storage"
      },
      "t_mapping(t_bytes32,t_mapping(t_address,t_struct(Bet)37_storage))": {
        "encoding": "mapping",
        "key": "t_bytes32",
        "label": "mapping(bytes32 => mapping(address => struct Beer4Crypto.Bet))",
        "numberOfBytes": "32",
        "value": "t_mapping(t_address,t_struct(Bet)37_storage)"
      },
      "t_mapping(t_bytes32,t_mapping(t_address,t_struct(Member)47_storage))": {
        "encoding": "mapping",
        "key": "t_bytes32",
        "label": "mapping(bytes32 => mapping(address => struct Beer4Crypto.Member))",
        "numberOfBytes": "32",
        "value": "t_mapping(t_address,t_struct(Member)47_storage)"
      },
      "t_mapping(t_bytes32,t_mapping(t_uint256,t_bytes32))": {
        "encoding": "mapping",
        "key": "t_bytes32",
        "label": "mapping(bytes32 => mapping(uint256 => bytes32))",
        "numberOfBytes": "32",
        "value": "t_mapping(t_uint256,t_bytes32)"
      },
      "t_mapping(t_bytes32,t_struct(Group)42_storage)": {
        "encoding": "mapping",
        "key": "t_bytes32",
        "label": "mapping(bytes32 => struct Beer4Crypto.Group)",
        "numberOfBytes": "32",
        "value": "t_struct(Group)42_storage"
      },
      "t_mapping(t_bytes32,t_struct(GroupEvent)23_storage)": {
        "encoding": "mapping",
        "key": "t_bytes32",
        "label": "mapping(bytes32 => struct Beer4Crypto.GroupEvent)",
        "numberOfBytes": "32",
        "value": "t_struct(GroupEvent)23_storage"
      },
      "t_mapping(t_uint256,t_bytes32)": {
        "encoding": "mapping",
        "key": "t_uint256",
        "label": "mapping(uint256 => bytes32)",
        "numberOfBytes": "32",
        "value": "t_bytes32"
      },
      "t_string_storage": {
        "encoding": "bytes",
        "label": "string",
        "numberOfBytes": "32"
      },
      "t_struct(Bet)37_storage": {
        "encoding": "inplace",
        "label": "struct Beer4Crypto.Bet",
        "members": [
          {
            "astId": 25,
            "contract": "contracts/Beer4Crypto.sol:Beer4Crypto",
            "label": "creator",
            "offset": 0,
            "slot": "0",
            "type": "t_address"
          },
          {
            "astId": 27,
            "contract": "contracts/Beer4Crypto.sol:Beer4Crypto",
            "label": "betDate",
            "offset": 0,
            "slot": "1",
            "type": "t_uint256"
          },
          {
            "astId": 29,
            "contract": "contracts/Beer4Crypto.sol:Beer4Crypto",
            "label": "predictedEthPrice",
            "offset": 0,
            "slot": "2",
            "type": "t_uint256"
          },
          {
            "astId": 31,
            "contract": "contracts/Beer4Crypto.sol:Beer4Crypto",
            "label": "amountDeposited",
            "offset": 0,
            "slot": "3",
            "type": "t_uint256"
          },
          {
            "astId": 34,
            "contract": "contracts/Beer4Crypto.sol:Beer4Crypto",
            "label": "status",
            "offset": 0,
            "slot": "4",
            "type": "t_enum(BetStatus)6"
          },
          {
            "astId": 36,
            "contract": "contracts/Beer4Crypto.sol:Beer4Crypto",
            "label": "eventId",
            "offset": 0,
            "slot": "5",
            "type": "t_bytes32"
          }
        ],
        "numberOfBytes": "192"
      },
      "t_struct(Group)42_storage": {
        "encoding": "inplace",
        "label": "struct Beer4Crypto.Group",
        "members": [
          {
            "astId": 39,
            "contract": "contracts/Beer4Crypto.sol:Beer4Crypto",
            "label": "id",
            "offset": 0,
            "slot": "0",
            "type": "t_bytes32"
          },
          {
            "astId": 41,
            "contract": "contracts/Beer4Crypto.sol:Beer4Crypto",
            "label": "name",
            "offset": 0,
            "slot": "1",
            "type": "t_string_storage"
          }
        ],
        "numberOfBytes": "64"
      },
      "t_struct(GroupEvent)23_storage": {
        "encoding": "inplace",
        "label": "struct Beer4Crypto.GroupEvent",
        "members": [
          {
            "astId": 8,
            "contract": "contracts/Beer4Crypto.sol:Beer4Crypto",
            "label": "id",
            "offset": 0,
            "slot": "0",
            "type": "t_bytes32"
          },
          {
            "astId": 10,
            "contract": "contracts/Beer4Crypto.sol:Beer4Crypto",
            "label": "creator",
            "offset": 0,
            "slot": "1",
            "type": "t_address"
          },
          {
            "astId": 12,
            "contract": "contracts/Beer4Crypto.sol:Beer4Crypto",
            "label": "eventDate",
            "offset": 0,
            "slot": "2",
            "type": "t_uint256"
          },
          {
            "astId": 14,
            "contract": "contracts/Beer4Crypto.sol:Beer4Crypto",
            "label": "minDeposit",
            "offset": 0,
            "slot": "3",
            "type": "t_uint256"
          },
          {
            "astId": 16,
            "contract": "contracts/Beer4Crypto.sol:Beer4Crypto",
            "label": "ended",
            "offset": 0,
            "slot": "4",
            "type": "t_bool"
          },
          {
            "astId": 18,
            "contract": "contracts/Beer4Crypto.sol:Beer4Crypto",
            "label": "groupId",
            "offset": 0,
            "slot": "5",
            "type": "t_bytes32"
          },
          {
            "astId": 20,
            "contract": "contracts/Beer4Crypto.sol:Beer4Crypto",
            "label": "maxBetDate",
            "offset": 0,
            "slot": "6",
            "type": "t_uint256"
          },
          {
            "astId": 22,
            "contract": "contracts/Beer4Crypto.sol:Beer4Crypto",
            "label": "actualEthPrice",
            "offset": 0,
            "slot": "7",
            "type": "t_uint256"
          }
        ],
        "numberOfBytes": "256"
      },
      "t_struct(Member)47_storage": {
        "encoding": "inplace",
        "label": "struct Beer4Crypto.Member",
        "members": [
          {
            "astId": 44,
            "contract": "contracts/Beer4Crypto.sol:Beer4Crypto",
            "label": "memberAddress",
            "offset": 0,
            "slot": "0",
            "type": "t_address"
          },
          {
            "astId": 46,
            "contract": "contracts/Beer4Crypto.sol:Beer4Crypto",
            "label": "nickname",
            "offset": 0,
            "slot": "1",
            "type": "t_string_storage"
          }
        ],
        "numberOfBytes": "64"
      },
      "t_uint256": {
        "encoding": "inplace",
        "label": "uint256",
        "numberOfBytes": "32"
      }
    }
  }
}