{
  "address": "0x2570561A620c31094ab0753f9850d056777b20B3",
  "abi": [
    {
      "anonymous": false,
      "inputs": [
        {
          "indexed": false,
          "internalType": "address",
          "name": "creator",
          "type": "address"
        },
        {
          "indexed": false,
          "internalType": "uint256",
          "name": "pickWinnerDate",
          "type": "uint256"
        },
        {
          "indexed": false,
          "internalType": "uint256",
          "name": "minDeposit",
          "type": "uint256"
        },
        {
          "indexed": false,
          "internalType": "bytes32",
          "name": "groupId",
          "type": "bytes32"
        },
        {
          "indexed": false,
          "internalType": "uint256",
          "name": "maxBetDateInterval",
          "type": "uint256"
        }
      ],
      "name": "BetCreated",
      "type": "event"
    },
    {
      "anonymous": false,
      "inputs": [
        {
          "indexed": false,
          "internalType": "address",
          "name": "creator",
          "type": "address"
        },
        {
          "indexed": false,
          "internalType": "uint256",
          "name": "eventDate",
          "type": "uint256"
        },
        {
          "indexed": false,
          "internalType": "uint256",
          "name": "minDeposit",
          "type": "uint256"
        },
        {
          "indexed": false,
          "internalType": "bytes32",
          "name": "groupId",
          "type": "bytes32"
        },
        {
          "indexed": false,
          "internalType": "uint256",
          "name": "maxBetDate",
          "type": "uint256"
        }
      ],
      "name": "EventCreated",
      "type": "event"
    },
    {
      "anonymous": false,
      "inputs": [
        {
          "indexed": false,
          "internalType": "string",
          "name": "name",
          "type": "string"
        },
        {
          "indexed": false,
          "internalType": "bytes32",
          "name": "id",
          "type": "bytes32"
        }
      ],
      "name": "GroupCreated",
      "type": "event"
    },
    {
      "anonymous": false,
      "inputs": [
        {
          "indexed": false,
          "internalType": "bytes32",
          "name": "groupId",
          "type": "bytes32"
        },
        {
          "indexed": false,
          "internalType": "address",
          "name": "memberAddress",
          "type": "address"
        },
        {
          "indexed": false,
          "internalType": "string",
          "name": "nickname",
          "type": "string"
        }
      ],
      "name": "MemberInvited",
      "type": "event"
    },
    {
      "inputs": [
        {
          "internalType": "uint256",
          "name": "eventDate",
          "type": "uint256"
        },
        {
          "internalType": "uint256",
          "name": "minDeposit",
          "type": "uint256"
        },
        {
          "internalType": "bytes32",
          "name": "groupId",
          "type": "bytes32"
        },
        {
          "internalType": "uint256",
          "name": "maxBetDate",
          "type": "uint256"
        }
      ],
      "name": "createEvent",
      "outputs": [],
      "stateMutability": "nonpayable",
      "type": "function"
    },
    {
      "inputs": [
        {
          "internalType": "string",
          "name": "groupName",
          "type": "string"
        },
        {
          "internalType": "string",
          "name": "nickname",
          "type": "string"
        }
      ],
      "name": "createGroup",
      "outputs": [],
      "stateMutability": "nonpayable",
      "type": "function"
    },
    {
      "inputs": [
        {
          "internalType": "address",
          "name": "memberAddress",
          "type": "address"
        },
        {
          "internalType": "string",
          "name": "memberNickname",
          "type": "string"
        },
        {
          "internalType": "bytes32",
          "name": "groupId",
          "type": "bytes32"
        }
      ],
      "name": "inviteMember",
      "outputs": [],
      "stateMutability": "nonpayable",
      "type": "function"
    },
    {
      "inputs": [
        {
          "internalType": "bytes32",
          "name": "groupId",
          "type": "bytes32"
        },
        {
          "internalType": "address",
          "name": "member",
          "type": "address"
        }
      ],
      "name": "isMember",
      "outputs": [
        {
          "internalType": "bool",
          "name": "",
          "type": "bool"
        }
      ],
      "stateMutability": "view",
      "type": "function"
    },
    {
      "inputs": [
        {
          "internalType": "bytes32",
          "name": "groupId",
          "type": "bytes32"
        }
      ],
      "name": "listGroupEvents",
      "outputs": [
        {
          "components": [
            {
              "internalType": "address",
              "name": "creator",
              "type": "address"
            },
            {
              "internalType": "uint256",
              "name": "eventDate",
              "type": "uint256"
            },
            {
              "internalType": "uint256",
              "name": "minDeposit",
              "type": "uint256"
            },
            {
              "internalType": "bool",
              "name": "ended",
              "type": "bool"
            },
            {
              "internalType": "bytes32",
              "name": "groupId",
              "type": "bytes32"
            },
            {
              "internalType": "uint256",
              "name": "maxBetDate",
              "type": "uint256"
            },
            {
              "internalType": "uint256",
              "name": "actualEthPrice",
              "type": "uint256"
            }
          ],
          "internalType": "struct Beer4Crypto.Event[]",
          "name": "",
          "type": "tuple[]"
        }
      ],
      "stateMutability": "view",
      "type": "function"
    },
    {
      "inputs": [
        {
          "internalType": "bytes32",
          "name": "id",
          "type": "bytes32"
        }
      ],
      "name": "listGroupMembers",
      "outputs": [
        {
          "components": [
            {
              "internalType": "address",
              "name": "memberAddress",
              "type": "address"
            },
            {
              "internalType": "string",
              "name": "nickname",
              "type": "string"
            }
          ],
          "internalType": "struct Beer4Crypto.Member[]",
          "name": "",
          "type": "tuple[]"
        }
      ],
      "stateMutability": "view",
      "type": "function"
    },
    {
      "inputs": [
        {
          "internalType": "address",
          "name": "member",
          "type": "address"
        }
      ],
      "name": "listMemberGroups",
      "outputs": [
        {
          "components": [
            {
              "internalType": "bytes32",
              "name": "id",
              "type": "bytes32"
            },
            {
              "internalType": "string",
              "name": "name",
              "type": "string"
            }
          ],
          "internalType": "struct Beer4Crypto.Group[]",
          "name": "",
          "type": "tuple[]"
        }
      ],
      "stateMutability": "view",
      "type": "function"
    }
  ],
  "transactionHash": "0x57019a5eefbc7f60065267be67ba95116f8d57bc86d4f25801fdbe70b6ba5aad",
  "args": [],
  "numDeployments": 2,
  "solcInputHash": "5c56c176bcfa8aac4011fb77031e5803",
  "bytecode": "0x608060405234801561001057600080fd5b506110bd806100206000396000f3fe608060405234801561001057600080fd5b506004361061007d5760003560e01c80631b23c48d1161005b5780631b23c48d146100df5780631e4a97dd146100ff5780634baa4128146101125780638cf750ea1461012557600080fd5b8063045c391c1461008257806310ad56b3146100975780631485bd48146100bf575b600080fd5b610095610090366004610a6f565b610145565b005b6100aa6100a5366004610abd565b610404565b60405190151581526020015b60405180910390f35b6100d26100cd366004610ae9565b610576565b6040516100b69190610b02565b6100f26100ed366004610ae9565b610636565b6040516100b69190610bdf565b61009561010d366004610cff565b61073b565b610095610120366004610d63565b6108a2565b610138610133366004610dba565b610969565b6040516100b69190610ddc565b816101508133610404565b6101755760405162461bcd60e51b815260040161016c90610e42565b60405180910390fd5b4285116101c45760405162461bcd60e51b815260206004820181905260248201527f4576656e742064617465206d75737420626520696e2074686520667574757265604482015260640161016c565b8185116102285760405162461bcd60e51b815260206004820152602c60248201527f4576656e742064617465206d7573742062652067726561746572207468616e2060448201526b6d617820626574206461746560a01b606482015260840161016c565b6000805b60008581526001602052604090205481101561029757600085815260016020526040902080548891908390811061026557610265610e85565b906000526020600020906007020160010154036102855760019150610297565b8061028f81610e9b565b91505061022c565b5080156102dd5760405162461bcd60e51b81526020600482015260146024820152734576656e7420616c72656164792065786973747360601b604482015260640161016c565b6040805160e0810182523380825260208083018a81528385018a8152600060608601818152608087018c815260a088018c815260c089018481528e855260018089528b862080548083018255908752989095208a5160079099020180546001600160a01b03999099166001600160a01b0319909916989098178855955193870193909355925160028601555160038501805491151560ff199092169190911790559051600484015551600583015551600690910155915190917fce1498e1122b1bfbc51fc964254cf0fc19e67eaeea804da24cf7b7b34c9966f7916103f391908a908a908a908a906001600160a01b03959095168552602085019390935260408401919091526060830152608082015260a00190565b60405180910390a150505050505050565b60008281526020818152604080832080548251818502810185019093528083528493849084015b82821015610504576000848152602090819020604080518082019091526002850290910180546001600160a01b03168252600181018054929391929184019161047390610ec2565b80601f016020809104026020016040519081016040528092919081815260200182805461049f90610ec2565b80156104ec5780601f106104c1576101008083540402835291602001916104ec565b820191906000526020600020905b8154815290600101906020018083116104cf57829003601f168201915b5050505050815250508152602001906001019061042b565b50505050905060005b815181101561056957836001600160a01b031682828151811061053257610532610e85565b6020026020010151600001516001600160a01b03160361055757600192505050610570565b8061056181610e9b565b91505061050d565b5060009150505b92915050565b606060016000838152602001908152602001600020805480602002602001604051908101604052809291908181526020016000905b8282101561062b5760008481526020908190206040805160e0810182526007860290920180546001600160a01b0316835260018082015484860152600282015492840192909252600381015460ff161515606084015260048101546080840152600581015460a08401526006015460c083015290835290920191016105ab565b505050509050919050565b600081815260208181526040808320805482518185028101850190935280835260609492939192909184015b8282101561062b576000848152602090819020604080518082019091526002850290910180546001600160a01b0316825260018101805492939192918401916106aa90610ec2565b80601f01602080910402602001604051908101604052809291908181526020018280546106d690610ec2565b80156107235780601f106106f857610100808354040283529160200191610723565b820191906000526020600020905b81548152906001019060200180831161070657829003601f168201915b50505050508152505081526020019060010190610662565b60008242434060405160200161075393929190610efc565b60408051601f198184030181528282528051602091820120838301835280845283820187815283518085018552338082528185018990526000908152600280865295812080546001818101835591835295909120875195909602909501938455905191955092849291908201906107ca9082610f72565b505050600083815260208181526040822080546001808201835591845292829020845160029094020180546001600160a01b0319166001600160a01b03909416939093178355908301518392918201906108249082610f72565b5050507f50032f83d3694b97a61f9796312b558744e9fb13361854acd23911fdce1f9a918584604051610858929190611032565b60405180910390a17f0d6a355f98d852081e35cdbc77eee1e345add65882b1f7d56eb12702e9621f5083338660405161089393929190611054565b60405180910390a15050505050565b806108ad8133610404565b6108c95760405162461bcd60e51b815260040161016c90610e42565b6040805180820182526001600160a01b0386811682526020808301878152600087815280835294852080546001808201835591875292909520845160029093020180546001600160a01b031916929093169190911782555191928392908201906109339082610f72565b5050507f0d6a355f98d852081e35cdbc77eee1e345add65882b1f7d56eb12702e9621f5083868660405161089393929190611054565b6001600160a01b0381166000908152600260209081526040808320805482518185028101850190935280835260609492939192909184015b8282101561062b5783829060005260206000209060020201604051806040016040529081600082015481526020016001820180546109de90610ec2565b80601f0160208091040260200160405190810160405280929190818152602001828054610a0a90610ec2565b8015610a575780601f10610a2c57610100808354040283529160200191610a57565b820191906000526020600020905b815481529060010190602001808311610a3a57829003601f168201915b505050505081525050815260200190600101906109a1565b60008060008060808587031215610a8557600080fd5b5050823594602084013594506040840135936060013592509050565b80356001600160a01b0381168114610ab857600080fd5b919050565b60008060408385031215610ad057600080fd5b82359150610ae060208401610aa1565b90509250929050565b600060208284031215610afb57600080fd5b5035919050565b602080825282518282018190526000919060409081850190868401855b82811015610b8257815180516001600160a01b03168552868101518786015285810151868601526060808201511515908601526080808201519086015260a0808201519086015260c0908101519085015260e09093019290850190600101610b1f565b5091979650505050505050565b60005b83811015610baa578181015183820152602001610b92565b50506000910152565b60008151808452610bcb816020860160208601610b8f565b601f01601f19169290920160200192915050565b60006020808301818452808551808352604092508286019150828160051b87010184880160005b83811015610c4e57888303603f19018552815180516001600160a01b03168452870151878401879052610c3b87850182610bb3565b9588019593505090860190600101610c06565b509098975050505050505050565b634e487b7160e01b600052604160045260246000fd5b600082601f830112610c8357600080fd5b813567ffffffffffffffff80821115610c9e57610c9e610c5c565b604051601f8301601f19908116603f01168101908282118183101715610cc657610cc6610c5c565b81604052838152866020858801011115610cdf57600080fd5b836020870160208301376000602085830101528094505050505092915050565b60008060408385031215610d1257600080fd5b823567ffffffffffffffff80821115610d2a57600080fd5b610d3686838701610c72565b93506020850135915080821115610d4c57600080fd5b50610d5985828601610c72565b9150509250929050565b600080600060608486031215610d7857600080fd5b610d8184610aa1565b9250602084013567ffffffffffffffff811115610d9d57600080fd5b610da986828701610c72565b925050604084013590509250925092565b600060208284031215610dcc57600080fd5b610dd582610aa1565b9392505050565b60006020808301818452808551808352604092508286019150828160051b87010184880160005b83811015610c4e57888303603f19018552815180518452870151878401879052610e2f87850182610bb3565b9588019593505090860190600101610e03565b60208082526023908201527f4f6e6c79206d656d626572732063616e2063616c6c20746869732066756e637460408201526234b7b760e91b606082015260800190565b634e487b7160e01b600052603260045260246000fd5b600060018201610ebb57634e487b7160e01b600052601160045260246000fd5b5060010190565b600181811c90821680610ed657607f821691505b602082108103610ef657634e487b7160e01b600052602260045260246000fd5b50919050565b60008451610f0e818460208901610b8f565b91909101928352506020820152604001919050565b601f821115610f6d57600081815260208120601f850160051c81016020861015610f4a5750805b601f850160051c820191505b81811015610f6957828155600101610f56565b5050505b505050565b815167ffffffffffffffff811115610f8c57610f8c610c5c565b610fa081610f9a8454610ec2565b84610f23565b602080601f831160018114610fd55760008415610fbd5750858301515b600019600386901b1c1916600185901b178555610f69565b600085815260208120601f198616915b8281101561100457888601518255948401946001909101908401610fe5565b50858210156110225787850151600019600388901b60f8161c191681555b5050505050600190811b01905550565b6040815260006110456040830185610bb3565b90508260208301529392505050565b8381526001600160a01b038316602082015260606040820181905260009061107e90830184610bb3565b9594505050505056fea264697066735822122022b8aef5d8ca8e04dfaeaa1fb54e5ce76b43c786b95f0385ad942520f833c65a64736f6c63430008130033",
  "devdoc": {
    "kind": "dev",
    "methods": {},
    "version": 1
  },
  "userdoc": {
    "kind": "user",
    "methods": {},
    "version": 1
  },
  "storageLayout": {
    "storage": [
      {
        "astId": 40,
        "contract": "contracts/Beer4Crypto.sol:Beer4Crypto",
        "label": "groupMembers",
        "offset": 0,
        "slot": "0",
        "type": "t_mapping(t_bytes32,t_array(t_struct(Member)34_storage)dyn_storage)"
      },
      {
        "astId": 46,
        "contract": "contracts/Beer4Crypto.sol:Beer4Crypto",
        "label": "groupEvents",
        "offset": 0,
        "slot": "1",
        "type": "t_mapping(t_bytes32,t_array(t_struct(Event)17_storage)dyn_storage)"
      },
      {
        "astId": 52,
        "contract": "contracts/Beer4Crypto.sol:Beer4Crypto",
        "label": "memberGroups",
        "offset": 0,
        "slot": "2",
        "type": "t_mapping(t_address,t_array(t_struct(Group)29_storage)dyn_storage)"
      },
      {
        "astId": 58,
        "contract": "contracts/Beer4Crypto.sol:Beer4Crypto",
        "label": "eventMemberBets",
        "offset": 0,
        "slot": "3",
        "type": "t_mapping(t_uint256,t_array(t_struct(MemberBet)24_storage)dyn_storage)"
      }
    ],
    "types": {
      "t_address": {
        "encoding": "inplace",
        "label": "address",
        "numberOfBytes": "20"
      },
      "t_array(t_struct(Event)17_storage)dyn_storage": {
        "base": "t_struct(Event)17_storage",
        "encoding": "dynamic_array",
        "label": "struct Beer4Crypto.Event[]",
        "numberOfBytes": "32"
      },
      "t_array(t_struct(Group)29_storage)dyn_storage": {
        "base": "t_struct(Group)29_storage",
        "encoding": "dynamic_array",
        "label": "struct Beer4Crypto.Group[]",
        "numberOfBytes": "32"
      },
      "t_array(t_struct(Member)34_storage)dyn_storage": {
        "base": "t_struct(Member)34_storage",
        "encoding": "dynamic_array",
        "label": "struct Beer4Crypto.Member[]",
        "numberOfBytes": "32"
      },
      "t_array(t_struct(MemberBet)24_storage)dyn_storage": {
        "base": "t_struct(MemberBet)24_storage",
        "encoding": "dynamic_array",
        "label": "struct Beer4Crypto.MemberBet[]",
        "numberOfBytes": "32"
      },
      "t_bool": {
        "encoding": "inplace",
        "label": "bool",
        "numberOfBytes": "1"
      },
      "t_bytes32": {
        "encoding": "inplace",
        "label": "bytes32",
        "numberOfBytes": "32"
      },
      "t_mapping(t_address,t_array(t_struct(Group)29_storage)dyn_storage)": {
        "encoding": "mapping",
        "key": "t_address",
        "label": "mapping(address => struct Beer4Crypto.Group[])",
        "numberOfBytes": "32",
        "value": "t_array(t_struct(Group)29_storage)dyn_storage"
      },
      "t_mapping(t_bytes32,t_array(t_struct(Event)17_storage)dyn_storage)": {
        "encoding": "mapping",
        "key": "t_bytes32",
        "label": "mapping(bytes32 => struct Beer4Crypto.Event[])",
        "numberOfBytes": "32",
        "value": "t_array(t_struct(Event)17_storage)dyn_storage"
      },
      "t_mapping(t_bytes32,t_array(t_struct(Member)34_storage)dyn_storage)": {
        "encoding": "mapping",
        "key": "t_bytes32",
        "label": "mapping(bytes32 => struct Beer4Crypto.Member[])",
        "numberOfBytes": "32",
        "value": "t_array(t_struct(Member)34_storage)dyn_storage"
      },
      "t_mapping(t_uint256,t_array(t_struct(MemberBet)24_storage)dyn_storage)": {
        "encoding": "mapping",
        "key": "t_uint256",
        "label": "mapping(uint256 => struct Beer4Crypto.MemberBet[])",
        "numberOfBytes": "32",
        "value": "t_array(t_struct(MemberBet)24_storage)dyn_storage"
      },
      "t_string_storage": {
        "encoding": "bytes",
        "label": "string",
        "numberOfBytes": "32"
      },
      "t_struct(Event)17_storage": {
        "encoding": "inplace",
        "label": "struct Beer4Crypto.Event",
        "members": [
          {
            "astId": 4,
            "contract": "contracts/Beer4Crypto.sol:Beer4Crypto",
            "label": "creator",
            "offset": 0,
            "slot": "0",
            "type": "t_address"
          },
          {
            "astId": 6,
            "contract": "contracts/Beer4Crypto.sol:Beer4Crypto",
            "label": "eventDate",
            "offset": 0,
            "slot": "1",
            "type": "t_uint256"
          },
          {
            "astId": 8,
            "contract": "contracts/Beer4Crypto.sol:Beer4Crypto",
            "label": "minDeposit",
            "offset": 0,
            "slot": "2",
            "type": "t_uint256"
          },
          {
            "astId": 10,
            "contract": "contracts/Beer4Crypto.sol:Beer4Crypto",
            "label": "ended",
            "offset": 0,
            "slot": "3",
            "type": "t_bool"
          },
          {
            "astId": 12,
            "contract": "contracts/Beer4Crypto.sol:Beer4Crypto",
            "label": "groupId",
            "offset": 0,
            "slot": "4",
            "type": "t_bytes32"
          },
          {
            "astId": 14,
            "contract": "contracts/Beer4Crypto.sol:Beer4Crypto",
            "label": "maxBetDate",
            "offset": 0,
            "slot": "5",
            "type": "t_uint256"
          },
          {
            "astId": 16,
            "contract": "contracts/Beer4Crypto.sol:Beer4Crypto",
            "label": "actualEthPrice",
            "offset": 0,
            "slot": "6",
            "type": "t_uint256"
          }
        ],
        "numberOfBytes": "224"
      },
      "t_struct(Group)29_storage": {
        "encoding": "inplace",
        "label": "struct Beer4Crypto.Group",
        "members": [
          {
            "astId": 26,
            "contract": "contracts/Beer4Crypto.sol:Beer4Crypto",
            "label": "id",
            "offset": 0,
            "slot": "0",
            "type": "t_bytes32"
          },
          {
            "astId": 28,
            "contract": "contracts/Beer4Crypto.sol:Beer4Crypto",
            "label": "name",
            "offset": 0,
            "slot": "1",
            "type": "t_string_storage"
          }
        ],
        "numberOfBytes": "64"
      },
      "t_struct(Member)34_storage": {
        "encoding": "inplace",
        "label": "struct Beer4Crypto.Member",
        "members": [
          {
            "astId": 31,
            "contract": "contracts/Beer4Crypto.sol:Beer4Crypto",
            "label": "memberAddress",
            "offset": 0,
            "slot": "0",
            "type": "t_address"
          },
          {
            "astId": 33,
            "contract": "contracts/Beer4Crypto.sol:Beer4Crypto",
            "label": "nickname",
            "offset": 0,
            "slot": "1",
            "type": "t_string_storage"
          }
        ],
        "numberOfBytes": "64"
      },
      "t_struct(MemberBet)24_storage": {
        "encoding": "inplace",
        "label": "struct Beer4Crypto.MemberBet",
        "members": [
          {
            "astId": 19,
            "contract": "contracts/Beer4Crypto.sol:Beer4Crypto",
            "label": "member",
            "offset": 0,
            "slot": "0",
            "type": "t_address"
          },
          {
            "astId": 21,
            "contract": "contracts/Beer4Crypto.sol:Beer4Crypto",
            "label": "betDate",
            "offset": 0,
            "slot": "1",
            "type": "t_uint256"
          },
          {
            "astId": 23,
            "contract": "contracts/Beer4Crypto.sol:Beer4Crypto",
            "label": "predictedEthPrice",
            "offset": 0,
            "slot": "2",
            "type": "t_uint256"
          }
        ],
        "numberOfBytes": "96"
      },
      "t_uint256": {
        "encoding": "inplace",
        "label": "uint256",
        "numberOfBytes": "32"
      }
    }
  }
}